:100000000C9472000C9493000C9493000C94930045
:100010000C9493000C9493000C9493000C94930014
:100020000C9493000C9493000C9493000C94930004
:100030000C9493000C94D4040C9400050C94740458
:100040000C9493000C94640F0C948B0F0C949300FD
:100050000C942E0F0C9493000C9493000C9493002A
:100060000C9493000C9493000C9493000C949300C4
:100070000C9493000C9493000C9493000C949300B4
:100080000C9493000C9493000C9493000C949500A2
:100090000C9493000C9493000C9493000C94930094
:1000A0000C9493000C9493000C9493000C94930084
:1000B0000C9493000C9493000C9493000C94930074
:1000C0000C9493000C9493000C9493000C94930064
:1000D0000C9493000C9493000C9493000C94930054
:1000E0000C94930011241FBECFEFD1E2DEBFCDBF31
:1000F00000E00CBF13E0A0E0B2E0E8E8FDE200E0C1
:100100000BBF02C007900D92A830B107D9F713E0DA
:10011000A8E0B3E001C01D92AA30B107E1F70E9448
:10012000B5050C94C2160C9400001F920F920FB6E6
:100130000F9200905B000F9211248F939F93AF93C7
:10014000BF93EF93FF93DF93CF93CDB7DEB7E4E98F
:10015000F0E084E294E6918380838091080390919B
:100160000903009741F0ABE0B1E0EBE0F1E09081F2
:100170008CE089278C93CF91DF91FF91EF91BF9114
:10018000AF919F918F910F9000925B000F900FBEE7
:100190000F901F901895DF93CF93CDB7DEB7AAE0ED
:1001A000B1E0EAE0F1E080818C608C93E0E9F0E07E
:1001B0001082E1E9F0E084E08083E1E7F0E081E0B3
:1001C0008083E4E9F0E084E294E69183808378948C
:1001D000CF91DF910895DF93CF930F92CDB7DEB724
:1001E0000E94CB00E7E2F0E08081E7E2F0E08FEFF1
:1001F0008083AAE0B1E0EAE0F1E0808183608C9343
:10020000A7E0B1E0E7E0F1E08081806E8C93A7E0A9
:10021000B1E0E7E0F1E080818C7F8C93A7E0B1E072
:10022000E7E0F1E08081837E8C93AAE2B0E0EAE22D
:10023000F0E080818D7F8C93A8E0B1E0E8E0F1E010
:10024000808183608C93A8E0B1E0E8E0F1E08081F8
:100250008C618C93ABE2B0E0EBE2F0E080818260F5
:100260008C930F90CF91DF910895DF93CF930F92EE
:100270000F92CDB7DEB781E090E09A8389838981C0
:100280009A810F900F90CF91DF910895DF93CF93D4
:10029000CDB7DEB7EA970FB6F894DEBF0FBECDBF7D
:1002A0009AAF89AF89AD9AAD009709F40EC18CEE73
:1002B0000E946105FFC0E9E2F0E08081882F90E0B4
:1002C00082709070009709F083C080E00E94610501
:1002D00072C080E090E0A0E2B1E48DAB9EABAFAB2A
:1002E000B8AF6DA97EA98FA998AD20E030E04AE7AC
:1002F00055E40E943312DC01CB0189AB9AABABAB66
:10030000BCAB69A97AA98BA99CA920E030E040E8A0
:100310005FE30E948D1388232CF481E090E098AB7A
:100320008FA73FC069A97AA98BA99CA920E03FEFBC
:100330004FE757E40E942D1318164CF56DA97EA9BE
:100340008FA998AD20E030E040E251E40E943312E2
:10035000DC01CB01BC01CD010E945D10DC01CB01B1
:1003600098AB8FA70FC080E991E09EA78DA78DA5C0
:100370009EA50197F1F79EA78DA78FA598A9019734
:1003800098AB8FA78FA598A9009769F714C069A9A2
:100390007AA98BA99CA90E945D10DC01CB0198ABC6
:1003A0008FA78FA598A99CA78BA78BA59CA5019724
:1003B000F1F79CA78BA7E9E2F0E08081882F90E01D
:1003C00082709070009709F484CF8CEE0E946105D2
:1003D00080E090E0A0E2B1E48FA398A7A9A7BAA714
:1003E0006FA178A589A59AA520E030E04AE755E4F9
:1003F0000E943312DC01CB018BA39CA3ADA3BEA34F
:100400006BA17CA18DA19EA120E030E040E85FE3DC
:100410000E948D1388232CF481E090E09AA389A395
:100420003FC06BA17CA18DA19EA120E03FEF4FE7D3
:1004300057E40E942D1318164CF56FA178A589A5D5
:100440009AA520E030E040E251E40E943312DC0142
:10045000CB01BC01CD010E945D10DC01CB019AA350
:1004600089A30FC080E991E098A38F8F8F8D98A109
:100470000197F1F798A38F8F89A19AA101979AA369
:1004800089A389A19AA1009769F714C06BA17CA1E7
:100490008DA19EA10E945D10DC01CB019AA389A3CE
:1004A00089A19AA19E8F8D8F8D8D9E8D0197F1F7D9
:1004B0009E8F8D8FE6E0F1E08081882F90E0817043
:1004C0009070882309F0F7CE0DC184E10E94610588
:1004D000FFC0E9E2F0E08081882F90E082709070A8
:1004E000009709F083C080E00E94610572C080E03F
:1004F00090E0A0E2B1E4898F9A8FAB8FBC8F698DB9
:100500007A8D8B8D9C8D20E030E04AE755E40E9487
:100510003312DC01CB018D8B9E8BAF8BB88F6D8935
:100520007E898F89988D20E030E040E85FE30E946B
:100530008D1388232CF481E090E09C8B8B8B3FC043
:100540006D897E898F89988D20E03FEF4FE757E4D2
:100550000E942D1318164CF5698D7A8D8B8D9C8D0C
:1005600020E030E040E251E40E943312DC01CB0194
:10057000BC01CD010E945D10DC01CB019C8B8B8BFB
:100580000FC080E991E09A8B898B89899A890197BC
:10059000F1F79A8B898B8B899C8901979C8B8B8B2C
:1005A0008B899C89009769F714C06D897E898F8932
:1005B000988D0E945D10DC01CB019C8B8B8B8B890D
:1005C0009C89988B8F878F8598890197F1F7988BF5
:1005D0008F87E9E2F0E08081882F90E08270907050
:1005E000009709F484CF84E10E94610580E090E0E7
:1005F000A0E2B1E48B879C87AD87BE876B857C8545
:100600008D859E8520E030E04AE755E40E94331254
:10061000DC01CB018F839887A987BA876F817885A2
:1006200089859A8520E030E040E85FE30E948D13E1
:1006300088232CF481E090E09E838D833FC06F81FE
:10064000788589859A8520E03FEF4FE757E40E943F
:100650002D1318164CF56B857C858D859E8520E0C5
:1006600030E040E251E40E943312DC01CB01BC01D6
:10067000CD010E945D10DC01CB019E838D830FC0F4
:1006800080E991E09C838B838B819C810197F1F7BA
:100690009C838B838D819E8101979E838D838D8129
:1006A0009E81009769F714C06F81788589859A8546
:1006B0000E945D10DC01CB019E838D838D819E8124
:1006C0009A83898389819A810197F1F79A83898333
:1006D000E6E0F1E08081882F90E0827090700097D2
:1006E00009F0F7CE80E00E946105EA960FB6F89413
:1006F000DEBF0FBECDBFCF91DF910895DF93CF93C3
:1007000000D00F92CDB7DEB79A838983A8E0B1E01D
:10071000E8E0F1E080818F718C9389819A819C83DC
:100720008B838B819C818130910589F08B819C81A9
:1007300082309105A1F08B819C810097B9F4A8E0EB
:10074000B1E0E8E0F1E0808180688C930FC0A8E020
:10075000B1E0E8E0F1E0808180648C9307C0A8E01C
:10076000B1E0E8E0F1E0808180628C930F900F901F
:100770000F900F90CF91DF910895DF93CF930F9259
:100780000F92CDB7DEB79A8389830F900F90CF91E8
:10079000DF910895DF93CF930F920F92CDB7DEB71D
:1007A0009A83898389819A81009771F081E090E032
:1007B0009093090380930803ABE0B1E0EBE0F1E034
:1007C000808184608C930BC01092090310920803FF
:1007D000ABE0B1E0EBE0F1E08081837F8C930F90A0
:1007E0000F90CF91DF910895DF93CF9300D00F92B8
:1007F0000F92CDB7DEB79A838983E8E2F0E080817B
:10080000E8E2F0E01082ABE0B1E0EBE0F1E0808103
:100810008C7F8C9389819A819D838C838C819D812F
:1008200081309105E9F08C819D81823091052CF415
:100830008C819D81009761F031C08C819D818230D7
:100840009105B1F08C819D8183309105C9F026C05E
:10085000A8E2B0E0E8E2F0E08081806F8C931EC0F7
:10086000A8E2B0E0E8E2F0E080818C6F8C9316C0E3
:10087000A8E2B0E0E8E2F0E080818F608C930EC0E7
:10088000A8E2B0E0E8E2F0E0808180638C93ABE026
:10089000B1E0EBE0F1E0808181608C930F900F90EC
:1008A0000F900F900F90CF91DF910895DF93CF932A
:1008B0000F920F92CDB7DEB79A83898389819A818F
:1008C000009739F080E00E94DF0F80E00E941E1048
:1008D00006C084E60E94DF0F84E60E941E100F907F
:1008E0000F90CF91DF9108951F920F920FB60F9244
:1008F00000905B000F9211248F93AF93BF93EF93FF
:10090000FF93DF93CF93CDB7DEB7E3EBF0E08081C9
:100910008823A1F4E4EBF0E08081882379F4AEE24F
:10092000B0E0EEE2F0E080818F7D8C93AEE2B0E04B
:10093000EEE2F0E080818F7E8C9327C0E3EBF0E065
:100940008081882379F0AEE2B0E0EEE2F0E08081D1
:100950008F7E8C93AEE2B0E0EEE2F0E080818062C8
:100960008C9313C0E4EBF0E08081882371F0AEE259
:10097000B0E0EEE2F0E080818F7D8C93AEE2B0E0FB
:10098000EEE2F0E0808180618C93CF91DF91FF9166
:10099000EF91BF91AF918F910F9000925B000F90FC
:1009A0000FBE0F901F9018951F920F920FB60F92C7
:1009B00000905B000F9211248F93AF93BF93EF933E
:1009C000FF93DF93CF93CDB7DEB7E3EBF0E0808109
:1009D0008F3F39F0AEE2B0E0EEE2F0E080818F7D53
:1009E0008C93CF91DF91FF91EF91BF91AF918F9158
:1009F0000F9000925B000F900FBE0F901F90189504
:100A00001F920F920FB60F9200905B000F9211246D
:100A10008F93AF93BF93EF93FF93DF93CF93CDB7B4
:100A2000DEB7E4EBF0E080818F3F39F0AEE2B0E07A
:100A3000EEE2F0E080818F7E8C93CF91DF91FF9189
:100A4000EF91BF91AF918F910F9000925B000F904B
:100A50000FBE0F901F901895DF93CF93CDB7DEB7E1
:100A6000ADE2B0E0EDE2F0E0808180628C93ADE237
:100A7000B0E0EDE2F0E0808180618C93AEE2B0E026
:100A8000EEE2F0E080818F7D8C93AEE2B0E0EEE2AA
:100A9000F0E080818F7E8C93E0EBF0E01082E1EB60
:100AA000F0E083E08083E3EBF0E01082E4EBF0E041
:100AB0001082E0E7F0E087E080837894CF91DF91C7
:100AC0000895DF93CF930F92CDB7DEB789838981E5
:100AD0008C390CF446C0898185360CF042C089817E
:100AE000882304F1E4EBF0E01082E3EBF0E089818D
:100AF000482F552747FD5095CA019C01220F331FEF
:100B0000C9019695982F882797958795821B930BF7
:100B1000840F951F24E630E0B9010E946416CB01D2
:100B200080831FC0E3EBF0E01082E4EBF0E089810A
:100B3000482F552747FD5095CA019C01220F331FAE
:100B4000C9019695982F882797958795821B930BB7
:100B5000840F951F2CE93FEFB9010E946416CB0169
:100B600080830F90CF91DF9108950F931F93DF93B0
:100B7000CF93CDB7DEB7CA5CD0400FB6F894DEBFD6
:100B80000FBECDBF0E942C050E94B20F0E94EB0049
:100B900080E090E00E94F40381E090E00E947E03F8
:100BA000E6E0F1E08081882F90E0827090700097FD
:100BB00009F4E0C281E090E00E94CA03FE01EF5315
:100BC000FF4F80E090E0AAE7B4E480839183A283A2
:100BD000B3838E0103541F4FFE01EF53FF4F60811B
:100BE00071818281938120E030E04AE755E40E94E0
:100BF0003312DC01CB01F80180839183A283B3839C
:100C0000FE01E354FF4F608171818281938120E076
:100C100030E040E85FE30E948D13882344F4FE0136
:100C2000E554FF4F81E090E09183808364C0FE0132
:100C3000E354FF4F608171818281938120E03FEF17
:100C40004FE757E40E942D1318160CF043C0FE0125
:100C5000EF53FF4F608171818281938120E030E00A
:100C600040E251E40E943312DC01CB018E010554B5
:100C70001F4FBC01CD010E945D10DC01CB01F801CA
:100C8000918380831FC0FE01E754FF4F80E991E00C
:100C900091838083FE01E754FF4F8081918101970A
:100CA000F1F7FE01E754FF4F91838083DE01A554E5
:100CB000BF4FFE01E554FF4F80819181019711964E
:100CC0009C938E93FE01E554FF4F808191810097A4
:100CD000D1F627C08E0105541F4FFE01E354FF4F8C
:100CE00060817181828193810E945D10DC01CB0162
:100CF000F80191838083DE01A954BF4FFE01E554C2
:100D0000FF4F808191818D939C93FE01E954FF4FA9
:100D1000808191810197F1F7FE01E954FF4F9183A2
:100D2000808381E090E00E945604FE01ED54FF4F65
:100D300080E090E0AAE7B4E480839183A283B38348
:100D40008E0101551F4FFE01ED54FF4F60817181EF
:100D50008281938120E030E04AE755E40E9433121B
:100D6000DC01CB01F80180839183A283B383FE0170
:100D7000E155FF4F608171818281938120E030E0F5
:100D800040E85FE30E948D13882344F4FE01E3559D
:100D9000FF4F81E090E09183808364C0FE01E155C4
:100DA000FF4F608171818281938120E03FEF4FE7A7
:100DB00057E40E942D1318160CF043C0FE01ED54A9
:100DC000FF4F608171818281938120E030E040E2B9
:100DD00051E40E943312DC01CB018E0103551F4FF9
:100DE000BC01CD010E945D10DC01CB01F8019183B3
:100DF00080831FC0FE01E555FF4F80E991E091839C
:100E00008083FE01E555FF4F808191810197F1F7C5
:100E1000FE01E555FF4F91838083DE01A355BF4F4F
:100E2000FE01E355FF4F80819181019711969C93BC
:100E30008E93FE01E355FF4F808191810097D1F69B
:100E400027C08E0103551F4FFE01E155FF4F608102
:100E50007181828193810E945D10DC01CB01F801D8
:100E600091838083DE01A755BF4FFE01E355FF4FFD
:100E7000808191818D939C93FE01E755FF4F808186
:100E800091810197F1F7FE01E755FF4F9183808330
:100E900080E090E00E944601FE01EB55FF4F80E0AC
:100EA00090E0AAE7B4E480839183A283B3838E01A8
:100EB0000F551F4FFE01EB55FF4F608171818281FD
:100EC000938120E030E04AE755E40E943312DC01D0
:100ED000CB01F80180839183A283B383FE01EF5598
:100EE000FF4F608171818281938120E030E040E892
:100EF0005FE30E948D13882344F4FE01E156FF4F07
:100F000081E090E09183808364C0FE01EF55FF4F44
:100F1000608171818281938120E03FEF4FE757E448
:100F20000E942D1318160CF043C0FE01EB55FF4F25
:100F3000608171818281938120E030E040E251E460
:100F40000E943312DC01CB018E0101561F4FBC0100
:100F5000CD010E945D10DC01CB01F80191838083FB
:100F60001FC0FE01E356FF4F80E991E0918380832B
:100F7000FE01E356FF4F808191810197F1F7FE0159
:100F8000E356FF4F91838083DE01A156BF4FFE01E0
:100F9000E156FF4F80819181019711969C938E932A
:100FA000FE01E156FF4F808191810097D1F627C065
:100FB0008E0101561F4FFE01EF55FF4F6081718179
:100FC000828193810E945D10DC01CB01F801918345
:100FD0008083DE01A556BF4FFE01E156FF4F8081A1
:100FE00091818D939C93FE01E556FF4F8081918105
:100FF0000197F1F7FE01E556FF4F9183808380E072
:1010000090E00E945604FE01E956FF4F80E090E018
:10101000AAE7B4E480839183A283B3838E010D5643
:101020001F4FFE01E956FF4F6081718182819381DC
:1010300020E030E04AE755E40E943312DC01CB01A6
:10104000F80180839183A283B383FE01ED56FF4FA5
:10105000608171818281938120E030E040E85FE32C
:101060000E948D13882344F4FE01EF56FF4F81E068
:1010700090E09183808364C0FE01ED56FF4F608154
:1010800071818281938120E03FEF4FE757E40E9416
:101090002D1318160CF043C0FE01E956FF4F608176
:1010A00071818281938120E030E040E251E40E942E
:1010B0003312DC01CB018E010F561F4FBC01CD0155
:1010C0000E945D10DC01CB01F801918380831FC079
:1010D000FE01E157FF4F80E991E091838083FE019B
:1010E000E157FF4F808191810197F1F7FE01E157B0
:1010F000FF4F91838083DE01AF56BF4FFE01EF5655
:10110000FF4F80819181019711969C938E93FE01F0
:10111000EF56FF4F808191810097D1F627C08E0155
:101120000F561F4FFE01ED56FF4F60817181828186
:1011300093810E945D10DC01CB01F80191838083D3
:10114000DE01A357BF4FFE01EF56FF4F8081918113
:101150008D939C93FE01E357FF4F8081918101970E
:10116000F1F7FE01E357FF4F9183808380E090E029
:101170000E94CA0383E090E00E94F40380E090E0C4
:101180000E947E03E6E0F1E08081882F90E0847089
:101190009070C653DF4F1882CA5CD040009731F47C
:1011A000F1E0C653DF4FF883CA5CD040E6E0F1E0DF
:1011B0008081882F90E088709070C753DF4F18822D
:1011C000C95CD040009731F421E0C753DF4F28833A
:1011D000C95CD040C653DF4F8881CA5CD040C7533A
:1011E000DF4F3881C95CD040832BE82FF0E0C95332
:1011F000DF4FF983E883C75CD040E6E0F1E080810F
:10120000882F90E080719070CB53DF4F1982188245
:10121000C55CD040009741F421E030E0CB53DF4F74
:1012200039832883C55CD040C953DF4F88819981B9
:10123000C75CD040CB53DF4FE881F981C55CD0401B
:101240008E2B9F2B009709F49DCF81E090E00E94A8
:10125000F40381E090E00E94CA0381E090E00E94E4
:101260007E03FE01E757FF4F80E090E0AAE7B4E479
:1012700080839183A283B3838E010B571F4FFE019E
:10128000E757FF4F608171818281938120E030E0D8
:101290004AE755E40E943312DC01CB01F801808358
:1012A0009183A283B383FE01EB57FF4F608171816D
:1012B0008281938120E030E040E85FE30E948D135B
:1012C000882344F4FE01ED57FF4F81E090E09183C5
:1012D000808364C0FE01EB57FF4F60817181828182
:1012E000938120E03FEF4FE757E40E942D1318163B
:1012F0000CF043C0FE01E757FF4F6081718182818E
:10130000938120E030E040E251E40E943312DC019E
:10131000CB018E010D571F4FBC01CD010E945D1006
:10132000DC01CB01F801918380831FC0FE01EF57E0
:10133000FF4F80E991E091838083FE01EF57FF4FDB
:10134000808191810197F1F7FE01EF57FF4F918363
:101350008083DE01AD57BF4FFE01ED57FF4F808107
:101360009181019711969C938E93FE01ED57FF4F4B
:10137000808191810097D1F627C08E010D571F4FB4
:10138000FE01EB57FF4F60817181828193810E9442
:101390005D10DC01CB01F80191838083DE01A1584F
:1013A000BF4FFE01ED57FF4F808191818D939C933C
:1013B000FE01E158FF4F808191810197F1F7FE0115
:1013C000E158FF4F9183808381E090E00E945604B2
:1013D000FE01E558FF4F80E090E0AAE7B4E4808387
:1013E0009183A283B3838E0109581F4FFE01E558F4
:1013F000FF4F608171818281938120E030E04AE774
:1014000055E40E943312DC01CB01F8018083918303
:10141000A283B383FE01E958FF4F6081718182810D
:10142000938120E030E040E85FE30E948D13882341
:1014300044F4FE01EB58FF4F81E090E091838083FC
:1014400064C0FE01E958FF4F608171818281938100
:1014500020E03FEF4FE757E40E942D1318160CF0E1
:1014600043C0FE01E558FF4F608171818281938105
:1014700020E030E040E251E40E943312DC01CB0175
:101480008E010B581F4FBC01CD010E945D10DC0185
:10149000CB01F801918380831FC0FE01ED58FF4FFF
:1014A00080E991E091838083FE01ED58FF4F8081B8
:1014B00091810197F1F7FE01ED58FF4F91838083F1
:1014C000DE01AB58BF4FFE01EB58FF4F8081918189
:1014D000019711969C938E93FE01EB58FF4F8081EC
:1014E00091810097D1F627C08E010B581F4FFE0146
:1014F000E958FF4F60817181828193810E945D1064
:10150000DC01CB01F80191838083DE01AF58BF4F2E
:10151000FE01EB58FF4F808191818D939C93FE01DA
:10152000EF58FF4F808191810197F1F7FE01EF584D
:10153000FF4F9183808381E090E00E94460182E02A
:1015400090E00E94F40382E090E00E947E03FE019E
:10155000E359FF4F80E090E0AAE7B4E480839183F1
:10156000A283B3838E0107591F4FFE01E359FF4F3A
:10157000608171818281938120E030E04AE755E407
:101580000E943312DC01CB01F80180839183A28396
:10159000B383FE01E759FF4F60817181828193819E
:1015A00020E030E040E85FE30E948D13882344F49C
:1015B000FE01E959FF4F81E090E09183808364C090
:1015C000FE01E759FF4F608171818281938120E0A4
:1015D0003FEF4FE757E40E942D1318160CF043C05D
:1015E000FE01E359FF4F608171818281938120E088
:1015F00030E040E251E40E943312DC01CB018E0165
:1016000009591F4FBC01CD010E945D10DC01CB01C7
:10161000F801918380831FC0FE01EB59FF4F80E9E1
:1016200091E091838083FE01EB59FF4F808191818E
:101630000197F1F7FE01EB59FF4F91838083DE01A3
:10164000A959BF4FFE01E959FF4F80819181019750
:1016500011969C938E93FE01E959FF4F80819181F1
:101660000097D1F627C08E0109591F4FFE01E75997
:10167000FF4F60817181828193810E945D10DC0146
:10168000CB01F80191838083DE01AD59BF4FFE018C
:10169000E959FF4F808191818D939C93FE01ED5913
:1016A000FF4F808191810197F1F7FE01ED59FF4FC6
:1016B00091838083FE01E15AFF4F80E090E0AAE72A
:1016C000B4E480839183A283B3838E01055A1F4FB4
:1016D000FE01E15AFF4F608171818281938120E098
:1016E00030E04AE755E40E943312DC01CB01F801F7
:1016F00080839183A283B383FE01E55AFF4F60810B
:1017000071818281938120E030E040E85FE30E94B4
:101710008D13882344F4FE01E75AFF4F81E090E0E7
:101720009183808364C0FE01E55AFF4F608171811F
:101730008281938120E03FEF4FE757E40E942D1311
:1017400018160CF043C0FE01E15AFF4F6081718111
:101750008281938120E030E040E251E40E94331224
:10176000DC01CB018E01075A1F4FBC01CD010E9445
:101770005D10DC01CB01F801918380831FC0FE0165
:10178000E95AFF4F80E991E091838083FE01E95A95
:10179000FF4F808191810197F1F7FE01E95AFF4FD8
:1017A00091838083DE01A75ABF4FFE01E75AFF4FA6
:1017B00080819181019711969C938E93FE01E75A47
:1017C000FF4F808191810097D1F627C08E01075A83
:1017D0001F4FFE01E55AFF4F608171818281938125
:1017E0000E945D10DC01CB01F80191838083DE0152
:1017F000AB5ABF4FFE01E75AFF4F808191818D9315
:101800009C93FE01EB5AFF4F808191810197F1F784
:10181000FE01EB5AFF4F91838083FE01EF5AFF4F89
:1018200080E090E0AAE7B4E480839183A283B3834D
:101830008E01035B1F4FFE01EF5AFF4F60817181E4
:101840008281938120E030E04AE755E40E94331220
:10185000DC01CB01F80180839183A283B383FE0175
:10186000E35BFF4F608171818281938120E030E0F2
:1018700040E85FE30E948D13882344F4FE01E55B9A
:10188000FF4F81E090E09183808364C0FE01E35BC1
:10189000FF4F608171818281938120E03FEF4FE7AC
:1018A00057E40E942D1318160CF043C0FE01EF5AA6
:1018B000FF4F608171818281938120E030E040E2BE
:1018C00051E40E943312DC01CB018E01055B1F4FF6
:1018D000BC01CD010E945D10DC01CB01F8019183B8
:1018E00080831FC0FE01E75BFF4F80E991E0918399
:1018F0008083FE01E75BFF4F808191810197F1F7C3
:10190000FE01E75BFF4F91838083DE01A55BBF4F44
:10191000FE01E55BFF4F80819181019711969C93B9
:101920008E93FE01E55BFF4F808191810097D1F698
:1019300027C08E01055B1F4FFE01E35BFF4F6081F7
:101940007181828193810E945D10DC01CB01F801DD
:1019500091838083DE01A95BBF4FFE01E55BFF4FF2
:10196000808191818D939C93FE01E95BFF4F808183
:1019700091810197F1F7FE01E95BFF4F918380832D
:10198000FE01ED5BFF4F80E090E0AAE7B4E48083C6
:101990009183A283B3838E01015C1F4FFE01ED5B37
:1019A000FF4F608171818281938120E030E04AE7BE
:1019B00055E40E943312DC01CB01F801808391834E
:1019C000A283B383FE01FF9660817181828193813E
:1019D00020E030E040E85FE30E948D1388232CF480
:1019E00081E090E09EAF8DAF46C0FE01FF96608122
:1019F00071818281938120E03FEF4FE757E40E949D
:101A00002D13181664F5FE01ED5BFF4F60817181A7
:101A10008281938120E030E040E251E40E94331261
:101A2000DC01CB01BC01CD010E945D10DC01CB01CA
:101A30009EAF8DAF0FC080E991E09CAF8BAF8BADB7
:101A40009CAD0197F1F79CAF8BAF8DAD9EAD01972B
:101A50009EAF8DAF8DAD9EAD009769F716C0FE01AC
:101A6000FF9660817181828193810E945D10DC010B
:101A7000CB019EAF8DAF8DAD9EAD9AAF89AF89ADD5
:101A80009AAD0197F1F79AAF89AF81E090E00E949B
:101A9000F40380E090E0AAE7B4E48DAB9EABAFAB7B
:101AA000B8AF6DA97EA98FA998AD20E030E04AE7D4
:101AB00055E40E943312DC01CB0189AB9AABABAB8E
:101AC000BCAB69A97AA98BA99CA920E030E040E8C9
:101AD0005FE30E948D1388232CF481E090E098ABA3
:101AE0008FA73FC069A97AA98BA99CA920E03FEFE5
:101AF0004FE757E40E942D1318164CF56DA97EA9E7
:101B00008FA998AD20E030E040E251E40E9433120A
:101B1000DC01CB01BC01CD010E945D10DC01CB01D9
:101B200098AB8FA70FC080E991E09EA78DA78DA5E8
:101B30009EA50197F1F79EA78DA78FA598A901975C
:101B400098AB8FA78FA598A9009769F714C069A9CA
:101B50007AA98BA99CA90E945D10DC01CB0198ABEE
:101B60008FA78FA598A99CA78BA78BA59CA501974C
:101B7000F1F79CA78BA780E090E00E94F40380E03F
:101B800090E0AAE7B4E48FA398A7A9A7BAA76FA18A
:101B900078A589A59AA520E030E04AE755E40E949F
:101BA0003312DC01CB018BA39CA3ADA3BEA36BA11D
:101BB0007CA18DA19EA120E030E040E85FE30E947F
:101BC0008D1388232CF481E090E09AA389A33FC071
:101BD0006BA17CA18DA19EA120E03FEF4FE757E4D0
:101BE0000E942D1318164CF56FA178A589A59AA50A
:101BF00020E030E040E251E40E943312DC01CB01EE
:101C0000BC01CD010E945D10DC01CB019AA389A328
:101C10000FC080E991E098A38F8F8F8D98A10197D5
:101C2000F1F798A38F8F89A19AA101979AA389A30D
:101C300089A19AA1009769F714C06BA17CA18DA11D
:101C40009EA10E945D10DC01CB019AA389A389A10A
:101C50009AA19E8F8D8F8D8D9E8D0197F1F79E8F0E
:101C60008D8F81E090E00E947E0380E090E00E94F2
:101C7000460180E090E0AAE7B4E4898F9A8FAB8FA9
:101C8000BC8F698D7A8D8B8D9C8D20E030E04AE78A
:101C900055E40E943312DC01CB018D8B9E8BAF8B00
:101CA000B88F6D897E898F89988D20E030E040E87B
:101CB0005FE30E948D1388232CF481E090E09C8BDD
:101CC0008B8B3FC06D897E898F89988D20E03FEF97
:101CD0004FE757E40E942D1318164CF5698D7A8D45
:101CE0008B8D9C8D20E030E040E251E40E94331265
:101CF000DC01CB01BC01CD010E945D10DC01CB01F8
:101D00009C8B8B8B0FC080E991E09A8B898B8989A2
:101D10009A890197F1F79A8B898B8B899C89019716
:101D20009C8B8B8B8B899C89009769F714C06D897C
:101D30007E898F89988D0E945D10DC01CB019C8B80
:101D40008B8B8B899C89988B8F878F85988901973E
:101D5000F1F7988B8F8780E090E00E94560480E036
:101D600090E0AAE7B4E48B879C87AD87BE876B853C
:101D70007C858D859E8520E030E04AE755E40E9411
:101D80003312DC01CB018F839887A987BA876F81D3
:101D9000788589859A8520E030E040E85FE30E94FD
:101DA0008D1388232CF481E090E09E838D833FC0C7
:101DB0006F81788589859A8520E03FEF4FE757E46A
:101DC0000E942D1318164CF56B857C858D859E859C
:101DD00020E030E040E251E40E943312DC01CB010C
:101DE000BC01CD010E945D10DC01CB019E838D837F
:101DF0000FC080E991E09C838B838B819C8101974C
:101E0000F1F79C838B838D819E8101979E838D83C7
:101E10008D819E81009769F714C06F8178858985CF
:101E20009A850E945D10DC01CB019E838D838D819C
:101E30009E819A83898389819A810197F1F79A8398
:101E4000898380E090E00E947E0380E090E00E9421
:101E5000CA0383E090E00E94F40394C91F920F929A
:101E60000FB60F9200905B000F9211248F939F93F7
:101E7000AF93BF93EF93FF93DF93CF93CDB7DEB7CD
:101E8000E4E8F0E084E294E691838083A5E2B0E0A8
:101E9000E5E2F0E0808180618C93A5E2B0E0E5E2CC
:101EA000F0E0808180628C93CF91DF91FF91EF9180
:101EB000BF91AF919F918F910F9000925B000F9017
:101EC0000FBE0F901F9018951F920F920FB60F9292
:101ED00000905B000F9211248F93AF93BF93EF9309
:101EE000FF93DF93CF93CDB7DEB7A5E2B0E0E5E295
:101EF000F0E080818F7E8C93CF91DF91FF91EF9105
:101F0000BF91AF918F910F9000925B000F900FBE29
:101F10000F901F9018951F920F920FB60F9200907E
:101F20005B000F9211248F93AF93BF93EF93FF93B6
:101F3000DF93CF93CDB7DEB7A5E2B0E0E5E2F0E006
:101F400080818F7D8C93CF91DF91FF91EF91BF9135
:101F5000AF918F910F9000925B000F900FBE0F908A
:101F60001F901895DF93CF93CDB7DEB7A4E2B0E012
:101F7000E4E2F0E0808180618C93A4E2B0E0E4E2EE
:101F8000F0E0808180628C93E0E8F0E01082E1E88C
:101F9000F0E082E08083EFE6F0E087E08083E4E831
:101FA000F0E084E294E69183808380E00E94DF0F7A
:101FB00080E00E941E107894CF91DF9108950F93D6
:101FC0001F93DF93CF930F92CDB7DEB789838981BB
:101FD0008C3974F1898185365CF508E810E08981D7
:101FE000992787FD9095A92FB92FBC01CD010E949B
:101FF000BD13DC01CB01BC01CD0128E836E14DEC7D
:1020000050E40E943312DC01CB01BC01CD0120E081
:1020100038EB4FED56E40E940612DC01CB01BC0107
:10202000CD010E945D10DC01CB01F801918380831A
:102030000F90CF91DF911F910F9108950F931F93F0
:10204000DF93CF930F92CDB7DEB7898389818C3927
:1020500074F1898185365CF50AE810E08981992759
:1020600087FD9095A92FB92FBC01CD010E94BD130A
:10207000DC01CB01BC01CD0128E836E14DEC50E498
:102080000E943312DC01CB01BC01CD0120E038EB12
:102090004FED56E40E940612DC01CB01BC01CD01DC
:1020A0000E945D10DC01CB01F801918380830F90C9
:1020B000CF91DF911F910F910895EF92FF920F93AF
:1020C0001F937B018C0120E030E040E05FE40E9440
:1020D0005D1388238CF0C801B70120E030E040E0B8
:1020E0005FE40E94D5110E941B149B01AC0120509B
:1020F00030404040504806C0C801B7010E941B1440
:102100009B01AC01B901CA011F910F91FF90EF90A3
:102110000895A0E0B0E0EFE8F0E10C948B16DC014C
:102120002B01FA019C91923008F439C1EB018881AE
:10213000823008F433C1943069F4843009F02FC13F
:1021400011969C9111978981981709F428C1A0E0F4
:10215000B2E025C1843009F421C18230A9F4923063
:1021600009F01DC19A01AD0188E0EA010990AE01B4
:10217000E90109929E018150C1F7E201898111961E
:102180009C918923818308C1923009F407C112967A
:102190002D903C901397EB018A819B811496AD9012
:1021A000BD90CD90DC901797EC80FD800E811F8153
:1021B0009101281B390BB90137FF04C06627772727
:1021C000621B730B603271050CF061C012161306AE
:1021D0006CF537014801062E04C0969487947794D5
:1021E00067940A94D2F721E030E040E050E004C068
:1021F000220F331F441F551F6A95D2F721503040DC
:10220000404050402E213F214023512321153105CC
:102210004105510521F021E030E040E050E0790136
:102220008A01E628F728082919293CC0232BD1F177
:10223000260E371E35014601062E04C0969487945B
:10224000779467940A94D2F721E030E040E050E0C0
:1022500004C0220F331F441F551F6A95D2F7215027
:102260003040404050402A213B214C215D21211526
:1022700031054105510521F021E030E040E050E01A
:1022800059016A01A628B728C828D9280BC0821589
:1022900093052CF01C01AA24BB24650103C0EE2485
:1022A000FF24870111969C91D20111968C91981769
:1022B00009F445C0992339F0A80197012A193B096F
:1022C0004C095D0906C0A60195012E193F09400B76
:1022D000510B57FD08C0118233822282248335833B
:1022E000468357831DC081E0818333822282882701
:1022F0009927DC01821B930BA40BB50B8483958378
:10230000A683B7830DC0220F331F441F551F24839C
:102310003583468357838281938101979383828398
:102320002481358146815781DA01C9010197A109CC
:10233000B1098F5F9F4FAF4FBF4328F30BC091830D
:1023400033822282EA0CFB1C0C1D1D1DE482F582E7
:102350000683178383E080832481358146815781FA
:1023600057FF1AC0C901AA2797FDA095BA2F8170FF
:102370009070A070B0705695479537952795822B31
:10238000932BA42BB52B84839583A683B78382815B
:102390009381019693838283DF0101C0D201CD0135
:1023A000CDB7DEB7E2E10C94A716A0E2B0E0EBED0A
:1023B000F1E10C94971669837A838B839C832D8338
:1023C0003E834F835887E9E0EE2EF12CEC0EFD1E84
:1023D000CE010196B7010E9493158E010F5E1F4F2B
:1023E000CE010596B8010E9493158A8991E089274C
:1023F0008A8BC701B801AE01475E5F4F0E9489100A
:102400000E94BE14A096E6E00C94B316A0E2B0E0E1
:10241000ECE0F2E10C94971669837A838B839C83BA
:102420002D833E834F835887F9E0EF2EF12CEC0E7D
:10243000FD1ECE010196B7010E9493158E010F5E1D
:102440001F4FCE010596B8010E949315C701B80130
:10245000AE01475E5F4F0E9489100E94BE14A09695
:10246000E6E00C94B316A0E2B0E0E9E3F2E10C94EC
:102470008B1669837A838B839C832D833E834F8362
:102480005887CE010196BE01675F7F4F0E9493156A
:10249000CE010596BE016F5E7F4F0E949315998510
:1024A000923088F089898230C8F0943019F48230F3
:1024B00051F404C0843029F4923081F480E092E039
:1024C000C6C0923049F420E09A858A89981321E0A9
:1024D0002A87CE010996BBC0823049F420E09A8554
:1024E0008A89981321E02A8BCE014196B0C02D84B1
:1024F0003E844F8458886D887E888F88988CEE241F
:10250000FF248701AA24BB24650140E050E060E07D
:1025100070E0E0E0F0E0C10181709070892BE9F09B
:10252000E60CF71C081D191D9A01AB012A0D3B1D75
:102530004C1D5D1D80E090E0A0E0B0E0E614F704E3
:102540000805190520F481E090E0A0E0B0E0BA01B0
:10255000A901480F591F6A1F7B1FAA0CBB1CCC1C6A
:10256000DD1C97FE08C081E090E0A0E0B0E0A82A62
:10257000B92ACA2ADB2A3196E032F10549F0660C05
:10258000771C881C991C5694479437942794C3CF82
:10259000FA85EA892B893C898B859C85280F391F10
:1025A0002E5F3F4F17C0CA0181709070892B61F078
:1025B00016950795F794E79480E090E0A0E0B0E8E6
:1025C000E82AF92A0A2B1B2B76956795579547958C
:1025D0002F5F3F4F77FDE7CF0CC0440F551F661F9D
:1025E000771F17FD4160EE0CFF1C001F111F2150CB
:1025F0003040403090E0590790E0690790E4790757
:1026000060F32B8F3C8FDB01CA018F779070A07035
:10261000B07080349105A105B10561F447FD0AC091
:10262000E114F1040105110529F0405C5F4F6F4F83
:102630007F4F40781A8EFE1711F081E08A8F4D8F00
:102640005E8F6F8F78A383E0898FCE0149960E94B9
:10265000BE14A096E2E10C94A716A8E1B0E0E3E373
:10266000F3E10C94971669837A838B839C832D8383
:102670003E834F83588789E0E82EF12CEC0EFD1E37
:10268000CE010196B7010E9493158E010F5E1F4F78
:10269000CE010596B8010E9493158985823040F0DD
:1026A0008989823028F0C701B8010E940B1601C049
:1026B0008FEF6896E6E00C94B316A8E1B0E0E3E68D
:1026C000F3E10C94971669837A838B839C832D8323
:1026D0003E834F83588789E0E82EF12CEC0EFD1ED7
:1026E000CE010196B7010E9493158E010F5E1F4F18
:1026F000CE010596B8010E9493158985823040F07D
:102700008989823028F0C701B8010E940B1601C0E8
:102710008FEF6896E6E00C94B316A8E1B0E0E3E929
:10272000F3E10C94971669837A838B839C832D83C2
:102730003E834F83588789E0E82EF12CEC0EFD1E76
:10274000CE010196B7010E9493158E010F5E1F4FB7
:10275000CE010596B8010E9493158985823040F01C
:102760008989823028F0C701B8010E940B1601C088
:1027700081E06896E6E00C94B316A8E0B0E0E3ECE4
:10278000F3E10C9494169B01AC0183E08983DA0198
:10279000C9018827B7FD83959927AA27BB27B82E9B
:1027A000211531054105510519F482E089833AC0AC
:1027B0008823A9F0203080E0380780E0480780E8CF
:1027C000580729F460E070E080E09FEC30C0EE2410
:1027D000FF248701E21AF30A040B150B02C07901EA
:1027E0008A018EE1C82ED12CDC82CB82ED82FE8262
:1027F0000F831887C801B7010E946F14019718163C
:10280000190684F4082E04C0EE0CFF1C001F111FD3
:102810000A94D2F7ED82FE820F831887C81AD90A6C
:10282000DC82CB82BA82CE0101960E94BE14289629
:10283000E9E00C94B016ACE0B0E0E1E2F4E10C9415
:102840009B1669837A838B839C83CE010196BE019C
:102850006B5F7F4F0E9493158D81823061F18230D2
:1028600050F1843021F48E81882351F12EC02F81C4
:10287000388537FD20C06E812F3131051CF066236D
:10288000F9F023C08EE190E0821B930B29853A85F5
:102890004B855C8504C056954795379527958A9555
:1028A000D2F76623B1F050954095309521953F4F72
:1028B0004F4F5F4F0EC020E030E040E050E009C0D5
:1028C0002FEF3FEF4FEF5FE704C020E030E040E044
:1028D00050E8B901CA012C96E2E00C94B716EF92C9
:1028E000FF920F931F937B018C0180E0E81680E03C
:1028F000F80681E0080780E0180788F48FEFE816F3
:10290000F1040105110531F028F088E090E0A0E025
:10291000B0E017C080E090E0A0E0B0E012C080E03E
:10292000E81680E0F80680E0080781E0180728F044
:1029300088E190E0A0E0B0E004C080E190E0A0E099
:10294000B0E020E230E040E050E0281B390B4A0BB9
:102950005B0B04C016950795F794E7948A95D2F718
:10296000F701E85FFD4F8081281B310941095109BA
:10297000C9011F910F91FF90EF900895DF92EF92A0
:10298000FF920F931F93FC01E480F580068117816D
:10299000D1808081823048F480E090E0A0E1B0E016
:1029A000E82AF92A0A2B1B2BA5C0843009F49FC002
:1029B000823021F4EE24FF24870105C0E114F104E4
:1029C0000105110519F4E0E0F0E096C06281738121
:1029D0009FEF623879070CF05BC022E83FEF261BBF
:1029E000370B2A3131052CF020E030E040E050E098
:1029F0002AC0B801A701022E04C0769567955795A5
:102A000047950A94D2F781E090E0A0E0B0E004C0DE
:102A1000880F991FAA1FBB1F2A95D2F70197A109FA
:102A2000B1098E219F21A023B1230097A105B105F3
:102A300021F081E090E0A0E0B0E09A01AB01282B0A
:102A4000392B4A2B5B2BDA01C9018F779070A0706C
:102A5000B07080349105A105B10539F427FF09C094
:102A6000205C3F4F4F4F5F4F04C0215C3F4F4F4FA3
:102A70005F4FE0E0F0E02030A0E03A07A0E04A0736
:102A8000A0E45A0710F0E1E0F0E079018A0127C0E4
:102A90006038710564F5FB01E158FF4FD801C701AB
:102AA0008F779070A070B07080349105A105B1054A
:102AB00039F4E7FE0DC080E490E0A0E0B0E004C08F
:102AC0008FE390E0A0E0B0E0E80EF91E0A1F1B1FA4
:102AD00017FF05C016950795F794E794319687E0A0
:102AE00016950795F794E7948A95D1F705C0EE24DB
:102AF000FF248701EFEFF0E06E2F6795662767955B
:102B0000902F9F77D794DD24D7948E2F8695492FC9
:102B1000462B582F5D29B701CA011F910F91FF90D5
:102B2000EF90DF900895FC01DB014081518122810B
:102B3000622F6F7770E0221F2227221F9381892F37
:102B4000880F822B282F30E0991F9927991F119603
:102B50009C93119721153105A9F541155105610582
:102B6000710511F482E037C082E89FEF13969C93C1
:102B70008E9312979A01AB0167E0220F331F441F17
:102B8000551F6A95D1F783E08C930DC0220F331F38
:102B9000441F551F12968D919C9113970197139680
:102BA0009C938E931297203080E0380780E048078E
:102BB00080E4580758F314962D933D934D935C93FE
:102BC000179708952F3F310579F441155105610597
:102BD000710519F484E08C93089564FF03C081E0CB
:102BE0008C9312C01C9210C02F57304013963C9308
:102BF0002E93129783E08C9387E0440F551F661F36
:102C0000771F8A95D1F7706414964D935D936D93F9
:102C10007C93179708951F93DC01FB019C919230E0
:102C200008F447C08081823008F443C0943051F4E6
:102C300011961C91843099F58181682F70E0611B99
:102C400071093FC0843021F0923031F48230B9F103
:102C50008181882389F12DC011961C9111978230B2
:102C6000F1F081811817D9F412962D913C911397A8
:102C7000828193818217930794F028173907BCF05B
:102C800014968D919D910D90BC91A02D248135813C
:102C900046815781281739074A075B0718F4112323
:102CA00041F00AC082179307A407B50740F4112327
:102CB00019F061E070E005C06FEF7FEF02C060E0E7
:102CC00070E0CB011F91089597FB092E07260AD0CB
:102CD00077FD04D00CD006D000201AF470956195D1
:102CE0007F4F0895F6F7909581959F4F0895AA1B01
:102CF000BB1B51E107C0AA1FBB1FA617B70710F0E7
:102D0000A61BB70B881F991F5A95A9F78095909518
:102D1000BC01CD0108952F923F924F925F926F9226
:102D20007F928F929F92AF92BF92CF92DF92EF925B
:102D3000FF920F931F93CF93DF93CDB7DEB7CA1BDC
:102D4000DB0B0FB6F894DEBF0FBECDBF19942A88F7
:102D5000398848885F846E847D848C849B84AA84AF
:102D6000B984C884DF80EE80FD800C811B81AA813C
:102D7000B981CE0FD11D0FB6F894DEBF0FBECDBF07
:082D8000ED010895F894FFCF66
:102D8800000000000000000000010202030303032A
:102D980004040404040404040505050505050505E3
:102DA80005050505050505050606060606060606C3
:102DB80006060606060606060606060606060606AB
:102DC8000606060606060606070707070707070793
:102DD800070707070707070707070707070707077B
:102DE800070707070707070707070707070707076B
:102DF800070707070707070707070707070707075B
:102E08000707070707070707080808080808080842
:102E1800080808080808080808080808080808082A
:102E2800080808080808080808080808080808081A
:102E3800080808080808080808080808080808080A
:102E480008080808080808080808080808080808FA
:102E580008080808080808080808080808080808EA
:102E680008080808080808080808080808080808DA
:102E780008080808080808080808080808080808CA
:082E8800080808080808080802
:00000001FF
